{
  "_format": "hh-sol-artifact-1",
  "contractName": "Library",
  "sourceName": "contracts/Lock.sol",
  "abi": [
    {
      "inputs": [],
      "stateMutability": "nonpayable",
      "type": "constructor"
    },
    {
      "anonymous": false,
      "inputs": [
        {
          "indexed": true,
          "internalType": "address",
          "name": "owner",
          "type": "address"
        },
        {
          "indexed": true,
          "internalType": "address",
          "name": "approved",
          "type": "address"
        },
        {
          "indexed": true,
          "internalType": "uint256",
          "name": "tokenId",
          "type": "uint256"
        }
      ],
      "name": "Approval",
      "type": "event"
    },
    {
      "anonymous": false,
      "inputs": [
        {
          "indexed": true,
          "internalType": "address",
          "name": "owner",
          "type": "address"
        },
        {
          "indexed": true,
          "internalType": "address",
          "name": "operator",
          "type": "address"
        },
        {
          "indexed": false,
          "internalType": "bool",
          "name": "approved",
          "type": "bool"
        }
      ],
      "name": "ApprovalForAll",
      "type": "event"
    },
    {
      "anonymous": false,
      "inputs": [
        {
          "indexed": false,
          "internalType": "uint256",
          "name": "bookId",
          "type": "uint256"
        },
        {
          "indexed": false,
          "internalType": "address",
          "name": "borower",
          "type": "address"
        }
      ],
      "name": "BorrowBook",
      "type": "event"
    },
    {
      "anonymous": false,
      "inputs": [
        {
          "indexed": false,
          "internalType": "uint256",
          "name": "BookId",
          "type": "uint256"
        }
      ],
      "name": "MintBook",
      "type": "event"
    },
    {
      "anonymous": false,
      "inputs": [
        {
          "indexed": true,
          "internalType": "address",
          "name": "previousOwner",
          "type": "address"
        },
        {
          "indexed": true,
          "internalType": "address",
          "name": "newOwner",
          "type": "address"
        }
      ],
      "name": "OwnershipTransferred",
      "type": "event"
    },
    {
      "anonymous": false,
      "inputs": [
        {
          "indexed": true,
          "internalType": "address",
          "name": "from",
          "type": "address"
        },
        {
          "indexed": true,
          "internalType": "address",
          "name": "to",
          "type": "address"
        },
        {
          "indexed": true,
          "internalType": "uint256",
          "name": "tokenId",
          "type": "uint256"
        }
      ],
      "name": "Transfer",
      "type": "event"
    },
    {
      "inputs": [
        {
          "internalType": "address",
          "name": "to",
          "type": "address"
        },
        {
          "internalType": "uint256",
          "name": "tokenId",
          "type": "uint256"
        }
      ],
      "name": "approve",
      "outputs": [],
      "stateMutability": "nonpayable",
      "type": "function"
    },
    {
      "inputs": [
        {
          "internalType": "address",
          "name": "owner",
          "type": "address"
        }
      ],
      "name": "balanceOf",
      "outputs": [
        {
          "internalType": "uint256",
          "name": "",
          "type": "uint256"
        }
      ],
      "stateMutability": "view",
      "type": "function"
    },
    {
      "inputs": [
        {
          "internalType": "uint256",
          "name": "bookId",
          "type": "uint256"
        }
      ],
      "name": "borrowBooks",
      "outputs": [
        {
          "internalType": "bool",
          "name": "",
          "type": "bool"
        }
      ],
      "stateMutability": "payable",
      "type": "function"
    },
    {
      "inputs": [],
      "name": "fetchBooks",
      "outputs": [
        {
          "components": [
            {
              "internalType": "uint256",
              "name": "tokenId",
              "type": "uint256"
            },
            {
              "internalType": "uint256",
              "name": "bookId",
              "type": "uint256"
            },
            {
              "internalType": "uint256",
              "name": "price",
              "type": "uint256"
            }
          ],
          "internalType": "struct Library.Book[]",
          "name": "",
          "type": "tuple[]"
        }
      ],
      "stateMutability": "view",
      "type": "function"
    },
    {
      "inputs": [
        {
          "internalType": "uint256",
          "name": "tokenId",
          "type": "uint256"
        }
      ],
      "name": "getApproved",
      "outputs": [
        {
          "internalType": "address",
          "name": "",
          "type": "address"
        }
      ],
      "stateMutability": "view",
      "type": "function"
    },
    {
      "inputs": [
        {
          "internalType": "address",
          "name": "owner",
          "type": "address"
        },
        {
          "internalType": "address",
          "name": "operator",
          "type": "address"
        }
      ],
      "name": "isApprovedForAll",
      "outputs": [
        {
          "internalType": "bool",
          "name": "",
          "type": "bool"
        }
      ],
      "stateMutability": "view",
      "type": "function"
    },
    {
      "inputs": [
        {
          "internalType": "string",
          "name": "tokenUri",
          "type": "string"
        },
        {
          "internalType": "uint256",
          "name": "price",
          "type": "uint256"
        }
      ],
      "name": "mintNewBook",
      "outputs": [],
      "stateMutability": "nonpayable",
      "type": "function"
    },
    {
      "inputs": [
        {
          "internalType": "uint256",
          "name": "_bookId",
          "type": "uint256"
        }
      ],
      "name": "mintOldBook",
      "outputs": [],
      "stateMutability": "nonpayable",
      "type": "function"
    },
    {
      "inputs": [],
      "name": "name",
      "outputs": [
        {
          "internalType": "string",
          "name": "",
          "type": "string"
        }
      ],
      "stateMutability": "view",
      "type": "function"
    },
    {
      "inputs": [
        {
          "internalType": "uint256",
          "name": "id",
          "type": "uint256"
        }
      ],
      "name": "noOfBooks",
      "outputs": [
        {
          "internalType": "uint256",
          "name": "",
          "type": "uint256"
        }
      ],
      "stateMutability": "view",
      "type": "function"
    },
    {
      "inputs": [],
      "name": "ownedBooks",
      "outputs": [
        {
          "components": [
            {
              "internalType": "uint256",
              "name": "tokenId",
              "type": "uint256"
            },
            {
              "internalType": "uint256",
              "name": "bookId",
              "type": "uint256"
            },
            {
              "internalType": "uint256",
              "name": "price",
              "type": "uint256"
            }
          ],
          "internalType": "struct Library.Book[]",
          "name": "",
          "type": "tuple[]"
        }
      ],
      "stateMutability": "view",
      "type": "function"
    },
    {
      "inputs": [],
      "name": "owner",
      "outputs": [
        {
          "internalType": "address",
          "name": "",
          "type": "address"
        }
      ],
      "stateMutability": "view",
      "type": "function"
    },
    {
      "inputs": [
        {
          "internalType": "uint256",
          "name": "tokenId",
          "type": "uint256"
        }
      ],
      "name": "ownerOf",
      "outputs": [
        {
          "internalType": "address",
          "name": "",
          "type": "address"
        }
      ],
      "stateMutability": "view",
      "type": "function"
    },
    {
      "inputs": [],
      "name": "renounceOwnership",
      "outputs": [],
      "stateMutability": "nonpayable",
      "type": "function"
    },
    {
      "inputs": [
        {
          "internalType": "uint256",
          "name": "bookId",
          "type": "uint256"
        },
        {
          "internalType": "uint256",
          "name": "tokenId",
          "type": "uint256"
        }
      ],
      "name": "returnBook",
      "outputs": [],
      "stateMutability": "nonpayable",
      "type": "function"
    },
    {
      "inputs": [
        {
          "internalType": "address",
          "name": "from",
          "type": "address"
        },
        {
          "internalType": "address",
          "name": "to",
          "type": "address"
        },
        {
          "internalType": "uint256",
          "name": "tokenId",
          "type": "uint256"
        }
      ],
      "name": "safeTransferFrom",
      "outputs": [],
      "stateMutability": "nonpayable",
      "type": "function"
    },
    {
      "inputs": [
        {
          "internalType": "address",
          "name": "from",
          "type": "address"
        },
        {
          "internalType": "address",
          "name": "to",
          "type": "address"
        },
        {
          "internalType": "uint256",
          "name": "tokenId",
          "type": "uint256"
        },
        {
          "internalType": "bytes",
          "name": "data",
          "type": "bytes"
        }
      ],
      "name": "safeTransferFrom",
      "outputs": [],
      "stateMutability": "nonpayable",
      "type": "function"
    },
    {
      "inputs": [
        {
          "internalType": "address",
          "name": "operator",
          "type": "address"
        },
        {
          "internalType": "bool",
          "name": "approved",
          "type": "bool"
        }
      ],
      "name": "setApprovalForAll",
      "outputs": [],
      "stateMutability": "nonpayable",
      "type": "function"
    },
    {
      "inputs": [
        {
          "internalType": "bytes4",
          "name": "interfaceId",
          "type": "bytes4"
        }
      ],
      "name": "supportsInterface",
      "outputs": [
        {
          "internalType": "bool",
          "name": "",
          "type": "bool"
        }
      ],
      "stateMutability": "view",
      "type": "function"
    },
    {
      "inputs": [],
      "name": "symbol",
      "outputs": [
        {
          "internalType": "string",
          "name": "",
          "type": "string"
        }
      ],
      "stateMutability": "view",
      "type": "function"
    },
    {
      "inputs": [
        {
          "internalType": "uint256",
          "name": "tokenId",
          "type": "uint256"
        }
      ],
      "name": "tokenURI",
      "outputs": [
        {
          "internalType": "string",
          "name": "",
          "type": "string"
        }
      ],
      "stateMutability": "view",
      "type": "function"
    },
    {
      "inputs": [
        {
          "internalType": "address",
          "name": "from",
          "type": "address"
        },
        {
          "internalType": "address",
          "name": "to",
          "type": "address"
        },
        {
          "internalType": "uint256",
          "name": "tokenId",
          "type": "uint256"
        }
      ],
      "name": "transferFrom",
      "outputs": [],
      "stateMutability": "nonpayable",
      "type": "function"
    },
    {
      "inputs": [
        {
          "internalType": "address",
          "name": "newOwner",
          "type": "address"
        }
      ],
      "name": "transferOwnership",
      "outputs": [],
      "stateMutability": "nonpayable",
      "type": "function"
    },
    {
      "stateMutability": "payable",
      "type": "receive"
    }
  ],
  "bytecode": "0x60806040523480156200001157600080fd5b506040518060400160405280600481526020017f426f6f6b000000000000000000000000000000000000000000000000000000008152506040518060400160405280600281526020017f424b00000000000000000000000000000000000000000000000000000000000081525081600090816200008f919062000453565b508060019081620000a1919062000453565b505050620000c4620000b86200010b60201b60201c565b6200011360201b60201c565b33600a60006101000a81548173ffffffffffffffffffffffffffffffffffffffff021916908373ffffffffffffffffffffffffffffffffffffffff1602179055506200053a565b600033905090565b6000600760009054906101000a900473ffffffffffffffffffffffffffffffffffffffff16905081600760006101000a81548173ffffffffffffffffffffffffffffffffffffffff021916908373ffffffffffffffffffffffffffffffffffffffff1602179055508173ffffffffffffffffffffffffffffffffffffffff168173ffffffffffffffffffffffffffffffffffffffff167f8be0079c531659141344cd1fd0a4f28419497f9722a3daafe3b4186f6b6457e060405160405180910390a35050565b600081519050919050565b7f4e487b7100000000000000000000000000000000000000000000000000000000600052604160045260246000fd5b7f4e487b7100000000000000000000000000000000000000000000000000000000600052602260045260246000fd5b600060028204905060018216806200025b57607f821691505b60208210810362000271576200027062000213565b5b50919050565b60008190508160005260206000209050919050565b60006020601f8301049050919050565b600082821b905092915050565b600060088302620002db7fffffffffffffffffffffffffffffffffffffffffffffffffffffffffffffffff826200029c565b620002e786836200029c565b95508019841693508086168417925050509392505050565b6000819050919050565b6000819050919050565b6000620003346200032e6200032884620002ff565b62000309565b620002ff565b9050919050565b6000819050919050565b620003508362000313565b620003686200035f826200033b565b848454620002a9565b825550505050565b600090565b6200037f62000370565b6200038c81848462000345565b505050565b5b81811015620003b457620003a860008262000375565b60018101905062000392565b5050565b601f8211156200040357620003cd8162000277565b620003d8846200028c565b81016020851015620003e8578190505b62000400620003f7856200028c565b83018262000391565b50505b505050565b600082821c905092915050565b6000620004286000198460080262000408565b1980831691505092915050565b600062000443838362000415565b9150826002028217905092915050565b6200045e82620001d9565b67ffffffffffffffff8111156200047a5762000479620001e4565b5b62000486825462000242565b62000493828285620003b8565b600060209050601f831160018114620004cb5760008415620004b6578287015190505b620004c2858262000435565b86555062000532565b601f198416620004db8662000277565b60005b828110156200050557848901518255600182019150602085019450602081019050620004de565b8683101562000525578489015162000521601f89168262000415565b8355505b6001600288020188555050505b505050505050565b6144c9806200054a6000396000f3fe6080604052600436106101445760003560e01c8063715018a6116100b6578063c87b56dd1161006f578063c87b56dd14610468578063cb6cf684146104a5578063ce034cf2146104d0578063e985e9c5146104f9578063f2fde38b14610536578063f349ded91461055f5761014b565b8063715018a6146103805780638da5cb5b1461039757806395d89b41146103c257806397c24200146103ed578063a22cb46514610416578063b88d4fde1461043f5761014b565b80630deff704116101085780630deff7041461024757806323b872dd1461028457806342842e0e146102ad57806357421992146102d65780636352211e1461030657806370a08231146103435761014b565b8063019e18451461015057806301ffc9a71461017957806306fdde03146101b6578063081812fc146101e1578063095ea7b31461021e5761014b565b3661014b57005b600080fd5b34801561015c57600080fd5b5061017760048036038101906101729190612cf0565b61058a565b005b34801561018557600080fd5b506101a0600480360381019061019b9190612d75565b610777565b6040516101ad9190612dbd565b60405180910390f35b3480156101c257600080fd5b506101cb610859565b6040516101d89190612e68565b60405180910390f35b3480156101ed57600080fd5b5061020860048036038101906102039190612cf0565b6108eb565b6040516102159190612ecb565b60405180910390f35b34801561022a57600080fd5b5061024560048036038101906102409190612f12565b610931565b005b34801561025357600080fd5b5061026e60048036038101906102699190612cf0565b610a48565b60405161027b9190612f61565b60405180910390f35b34801561029057600080fd5b506102ab60048036038101906102a69190612f7c565b610a65565b005b3480156102b957600080fd5b506102d460048036038101906102cf9190612f7c565b610ac5565b005b6102f060048036038101906102eb9190612cf0565b610ae5565b6040516102fd9190612dbd565b60405180910390f35b34801561031257600080fd5b5061032d60048036038101906103289190612cf0565b610ffd565b60405161033a9190612ecb565b60405180910390f35b34801561034f57600080fd5b5061036a60048036038101906103659190612fcf565b611083565b6040516103779190612f61565b60405180910390f35b34801561038c57600080fd5b5061039561113a565b005b3480156103a357600080fd5b506103ac61114e565b6040516103b99190612ecb565b60405180910390f35b3480156103ce57600080fd5b506103d7611178565b6040516103e49190612e68565b60405180910390f35b3480156103f957600080fd5b50610414600480360381019061040f9190613131565b61120a565b005b34801561042257600080fd5b5061043d600480360381019061043891906131b9565b611333565b005b34801561044b57600080fd5b506104666004803603810190610461919061329a565b611349565b005b34801561047457600080fd5b5061048f600480360381019061048a9190612cf0565b6113ab565b60405161049c9190612e68565b60405180910390f35b3480156104b157600080fd5b506104ba6114bd565b6040516104c7919061341d565b60405180910390f35b3480156104dc57600080fd5b506104f760048036038101906104f2919061343f565b6116e6565b005b34801561050557600080fd5b50610520600480360381019061051b919061347f565b611a4d565b60405161052d9190612dbd565b60405180910390f35b34801561054257600080fd5b5061055d60048036038101906105589190612fcf565b611ae1565b005b34801561056b57600080fd5b50610574611b64565b604051610581919061341d565b60405180910390f35b610592611cf3565b6000600b600083815260200190815260200160002054036105e8576040517f08c379a00000000000000000000000000000000000000000000000000000000081526004016105df9061350b565b60405180910390fd5b6000600d60008381526020019081526020016000206000815481106106105761060f61352b565b5b90600052602060002090600302016000015490506000600d600084815260200190815260200160002060008154811061064c5761064b61352b565b5b9060005260206000209060030201600201549050600061066b836113ab565b90506106776008611d71565b60006106836008611d87565b9050600d600086815260200190815260200160002060405180606001604052808381526020018781526020018581525090806001815401808255809150506001900390600052602060002090600302016000909190919091506000820151816000015560208201518160010155604082015181600201555050600b6000868152602001908152602001600020600081548092919061072090613589565b919050555061072f3382611d95565b6107398183611fb2565b7f1b966019050768a7c207a9eeb30c405bf38af814ff89a6fb1d6eb3cf497cb55c856040516107689190612f61565b60405180910390a15050505050565b60007f80ac58cd000000000000000000000000000000000000000000000000000000007bffffffffffffffffffffffffffffffffffffffffffffffffffffffff1916827bffffffffffffffffffffffffffffffffffffffffffffffffffffffff1916148061084257507f5b5e139f000000000000000000000000000000000000000000000000000000007bffffffffffffffffffffffffffffffffffffffffffffffffffffffff1916827bffffffffffffffffffffffffffffffffffffffffffffffffffffffff1916145b8061085257506108518261201f565b5b9050919050565b60606000805461086890613600565b80601f016020809104026020016040519081016040528092919081815260200182805461089490613600565b80156108e15780601f106108b6576101008083540402835291602001916108e1565b820191906000526020600020905b8154815290600101906020018083116108c457829003601f168201915b5050505050905090565b60006108f682612089565b6004600083815260200190815260200160002060009054906101000a900473ffffffffffffffffffffffffffffffffffffffff169050919050565b600061093c82610ffd565b90508073ffffffffffffffffffffffffffffffffffffffff168373ffffffffffffffffffffffffffffffffffffffff16036109ac576040517f08c379a00000000000000000000000000000000000000000000000000000000081526004016109a3906136a3565b60405180910390fd5b8073ffffffffffffffffffffffffffffffffffffffff166109cb6120d4565b73ffffffffffffffffffffffffffffffffffffffff1614806109fa57506109f9816109f46120d4565b611a4d565b5b610a39576040517f08c379a0000000000000000000000000000000000000000000000000000000008152600401610a3090613735565b60405180910390fd5b610a4383836120dc565b505050565b6000600b6000838152602001908152602001600020549050919050565b610a76610a706120d4565b82612195565b610ab5576040517f08c379a0000000000000000000000000000000000000000000000000000000008152600401610aac906137c7565b60405180910390fd5b610ac083838361222a565b505050565b610ae083838360405180602001604052806000815250611349565b505050565b6000600a60009054906101000a900473ffffffffffffffffffffffffffffffffffffffff1673ffffffffffffffffffffffffffffffffffffffff163373ffffffffffffffffffffffffffffffffffffffff1603610b4157600080fd5b610b4b6009611d87565b821115610b8d576040517f08c379a0000000000000000000000000000000000000000000000000000000008152600401610b8490613833565b60405180910390fd5b6000600d6000848152602001908152602001600020600081548110610bb557610bb461352b565b5b9060005260206000209060030201600201549050803414610c0b576040517f08c379a0000000000000000000000000000000000000000000000000000000008152600401610c029061389f565b60405180910390fd5b6000600b60008581526020019081526020016000205411610c61576040517f08c379a0000000000000000000000000000000000000000000000000000000008152600401610c589061390b565b60405180910390fd5b6000600d6000858152602001908152602001600020805490509050600080600090505b82811015610d7057600a60009054906101000a900473ffffffffffffffffffffffffffffffffffffffff1673ffffffffffffffffffffffffffffffffffffffff16610d04600d60008981526020019081526020016000208381548110610ced57610cec61352b565b5b906000526020600020906003020160000154612523565b73ffffffffffffffffffffffffffffffffffffffff1603610d5d57600d60008781526020019081526020016000208181548110610d4457610d4361352b565b5b9060005260206000209060030201600001549150610d70565b8080610d6890613589565b915050610c84565b5060005b6003811015610f635785600c60003373ffffffffffffffffffffffffffffffffffffffff1673ffffffffffffffffffffffffffffffffffffffff1681526020019081526020016000208260038110610dcf57610dce61352b565b5b600302016001015403610e17576040517f08c379a0000000000000000000000000000000000000000000000000000000008152600401610e0e90613977565b60405180910390fd5b6000600c60003373ffffffffffffffffffffffffffffffffffffffff1673ffffffffffffffffffffffffffffffffffffffff1681526020019081526020016000208260038110610e6a57610e6961352b565b5b600302016001015403610f0d57604051806060016040528083815260200187815260200185815250600c60003373ffffffffffffffffffffffffffffffffffffffff1673ffffffffffffffffffffffffffffffffffffffff1681526020019081526020016000208260038110610ee357610ee261352b565b5b60030201600082015181600001556020820151816001015560408201518160020155905050610f63565b60028103610f50576040517f08c379a0000000000000000000000000000000000000000000000000000000008152600401610f47906139e3565b60405180910390fd5b8080610f5b90613589565b915050610d74565b50600b600086815260200190815260200160002060008154610f8490613a03565b91905081905550610fb8600a60009054906101000a900473ffffffffffffffffffffffffffffffffffffffff16338361222a565b7f37c78e25ac411edd800a9047a8312e80b3bf387cb03daa35cdfb684c8f929ae68533604051610fe9929190613a2c565b60405180910390a160019350505050919050565b60008061100983612523565b9050600073ffffffffffffffffffffffffffffffffffffffff168173ffffffffffffffffffffffffffffffffffffffff160361107a576040517f08c379a000000000000000000000000000000000000000000000000000000000815260040161107190613aa1565b60405180910390fd5b80915050919050565b60008073ffffffffffffffffffffffffffffffffffffffff168273ffffffffffffffffffffffffffffffffffffffff16036110f3576040517f08c379a00000000000000000000000000000000000000000000000000000000081526004016110ea90613b33565b60405180910390fd5b600360008373ffffffffffffffffffffffffffffffffffffffff1673ffffffffffffffffffffffffffffffffffffffff168152602001908152602001600020549050919050565b611142611cf3565b61114c6000612560565b565b6000600760009054906101000a900473ffffffffffffffffffffffffffffffffffffffff16905090565b60606001805461118790613600565b80601f01602080910402602001604051908101604052809291908181526020018280546111b390613600565b80156112005780601f106111d557610100808354040283529160200191611200565b820191906000526020600020905b8154815290600101906020018083116111e357829003601f168201915b5050505050905090565b611212611cf3565b61121c6008611d71565b6112266009611d71565b60006112326008611d87565b905060006112406009611d87565b9050600b6000828152602001908152602001600020600081548092919061126690613589565b9190505550600d6000828152602001908152602001600020604051806060016040528084815260200183815260200185815250908060018154018082558091505060019003906000526020600020906003020160009091909190915060008201518160000155602082015181600101556040820151816002015550506112ec3383611d95565b6112f68285611fb2565b7f1b966019050768a7c207a9eeb30c405bf38af814ff89a6fb1d6eb3cf497cb55c816040516113259190612f61565b60405180910390a150505050565b61134561133e6120d4565b8383612626565b5050565b61135a6113546120d4565b83612195565b611399576040517f08c379a0000000000000000000000000000000000000000000000000000000008152600401611390906137c7565b60405180910390fd5b6113a584848484612792565b50505050565b60606113b682612089565b60006006600084815260200190815260200160002080546113d690613600565b80601f016020809104026020016040519081016040528092919081815260200182805461140290613600565b801561144f5780601f106114245761010080835404028352916020019161144f565b820191906000526020600020905b81548152906001019060200180831161143257829003601f168201915b5050505050905060006114606127ee565b905060008151036114755781925050506114b8565b6000825111156114aa578082604051602001611492929190613b8f565b604051602081830303815290604052925050506114b8565b6114b384612805565b925050505b919050565b60606000805b600381101561154e576000600c60003373ffffffffffffffffffffffffffffffffffffffff1673ffffffffffffffffffffffffffffffffffffffff168152602001908152602001600020826003811061151f5761151e61352b565b5b60030201600001541461153b57818061153790613589565b9250505b808061154690613589565b9150506114c3565b5060008167ffffffffffffffff81111561156b5761156a613006565b5b6040519080825280602002602001820160405280156115a457816020015b611591612c85565b8152602001906001900390816115895790505b50905060005b60038110156116dd576000600c60003373ffffffffffffffffffffffffffffffffffffffff1673ffffffffffffffffffffffffffffffffffffffff16815260200190815260200160002082600381106116065761160561352b565b5b6003020160000154146116ca57600c60003373ffffffffffffffffffffffffffffffffffffffff1673ffffffffffffffffffffffffffffffffffffffff16815260200190815260200160002081600381106116645761166361352b565b5b6003020160405180606001604052908160008201548152602001600182015481526020016002820154815250508260018561169f9190613bb3565b815181106116b0576116af61352b565b5b602002602001018190525082806116c690613a03565b9350505b80806116d590613589565b9150506115aa565b50809250505090565b600a60009054906101000a900473ffffffffffffffffffffffffffffffffffffffff1673ffffffffffffffffffffffffffffffffffffffff163373ffffffffffffffffffffffffffffffffffffffff160361174057600080fd5b61174a6009611d87565b82111561175657600080fd5b3373ffffffffffffffffffffffffffffffffffffffff1661177682612523565b73ffffffffffffffffffffffffffffffffffffffff161461179657600080fd5b6000600d60008481526020019081526020016000208054905090506000805b828110156118165783600d600087815260200190815260200160002082815481106117e3576117e261352b565b5b906000526020600020906003020160000154036118035760019150611816565b808061180e90613589565b9150506117b5565b5080611857576040517f08c379a000000000000000000000000000000000000000000000000000000000815260040161184e90613c59565b60405180910390fd5b60005b600381101561196e5783600c60003373ffffffffffffffffffffffffffffffffffffffff1673ffffffffffffffffffffffffffffffffffffffff16815260200190815260200160002082600381106118b5576118b461352b565b5b60030201600001540361195b57604051806060016040528060008152602001600081526020016000815250600c60003373ffffffffffffffffffffffffffffffffffffffff1673ffffffffffffffffffffffffffffffffffffffff16815260200190815260200160002082600381106119315761193061352b565b5b6003020160008201518160000155602082015181600101556040820151816002015590505061196e565b808061196690613589565b91505061185a565b50600b60008581526020019081526020016000206000815461198f90613589565b919050819055506000600d60008681526020019081526020016000206000815481106119be576119bd61352b565b5b90600052602060002090600302016002015490506119ff33600a60009054906101000a900473ffffffffffffffffffffffffffffffffffffffff168661222a565b3373ffffffffffffffffffffffffffffffffffffffff166108fc829081150290604051600060405180830381858888f19350505050158015611a45573d6000803e3d6000fd5b505050505050565b6000600560008473ffffffffffffffffffffffffffffffffffffffff1673ffffffffffffffffffffffffffffffffffffffff16815260200190815260200160002060008373ffffffffffffffffffffffffffffffffffffffff1673ffffffffffffffffffffffffffffffffffffffff16815260200190815260200160002060009054906101000a900460ff16905092915050565b611ae9611cf3565b600073ffffffffffffffffffffffffffffffffffffffff168173ffffffffffffffffffffffffffffffffffffffff1603611b58576040517f08c379a0000000000000000000000000000000000000000000000000000000008152600401611b4f90613ceb565b60405180910390fd5b611b6181612560565b50565b60606000611b726009611d87565b9050600080600190505b828111611bbe576000600b60008381526020019081526020016000205414611bad578180611ba990613589565b9250505b80611bb790613589565b9050611b7c565b5060008167ffffffffffffffff811115611bdb57611bda613006565b5b604051908082528060200260200182016040528015611c1457816020015b611c01612c85565b815260200190600190039081611bf95790505b5090506000600190505b838111611ce9576000600b60008381526020019081526020016000205414611cd657600d6000828152602001908152602001600020600081548110611c6657611c6561352b565b5b9060005260206000209060030201604051806060016040529081600082015481526020016001820154815260200160028201548152505082600185611cab9190613bb3565b81518110611cbc57611cbb61352b565b5b60200260200101819052508280611cd290613a03565b9350505b8080611ce190613589565b915050611c1e565b5080935050505090565b611cfb6120d4565b73ffffffffffffffffffffffffffffffffffffffff16611d1961114e565b73ffffffffffffffffffffffffffffffffffffffff1614611d6f576040517f08c379a0000000000000000000000000000000000000000000000000000000008152600401611d6690613d57565b60405180910390fd5b565b6001816000016000828254019250508190555050565b600081600001549050919050565b600073ffffffffffffffffffffffffffffffffffffffff168273ffffffffffffffffffffffffffffffffffffffff1603611e04576040517f08c379a0000000000000000000000000000000000000000000000000000000008152600401611dfb90613dc3565b60405180910390fd5b611e0d8161286d565b15611e4d576040517f08c379a0000000000000000000000000000000000000000000000000000000008152600401611e4490613e2f565b60405180910390fd5b611e5b6000838360016128ae565b611e648161286d565b15611ea4576040517f08c379a0000000000000000000000000000000000000000000000000000000008152600401611e9b90613e2f565b60405180910390fd5b6001600360008473ffffffffffffffffffffffffffffffffffffffff1673ffffffffffffffffffffffffffffffffffffffff16815260200190815260200160002060008282540192505081905550816002600083815260200190815260200160002060006101000a81548173ffffffffffffffffffffffffffffffffffffffff021916908373ffffffffffffffffffffffffffffffffffffffff160217905550808273ffffffffffffffffffffffffffffffffffffffff16600073ffffffffffffffffffffffffffffffffffffffff167fddf252ad1be2c89b69c2b068fc378daa952ba7f163c4a11628f55a4df523b3ef60405160405180910390a4611fae6000838360016128b4565b5050565b611fbb8261286d565b611ffa576040517f08c379a0000000000000000000000000000000000000000000000000000000008152600401611ff190613ec1565b60405180910390fd5b8060066000848152602001908152602001600020908161201a919061408d565b505050565b60007f01ffc9a7000000000000000000000000000000000000000000000000000000007bffffffffffffffffffffffffffffffffffffffffffffffffffffffff1916827bffffffffffffffffffffffffffffffffffffffffffffffffffffffff1916149050919050565b6120928161286d565b6120d1576040517f08c379a00000000000000000000000000000000000000000000000000000000081526004016120c890613aa1565b60405180910390fd5b50565b600033905090565b816004600083815260200190815260200160002060006101000a81548173ffffffffffffffffffffffffffffffffffffffff021916908373ffffffffffffffffffffffffffffffffffffffff160217905550808273ffffffffffffffffffffffffffffffffffffffff1661214f83610ffd565b73ffffffffffffffffffffffffffffffffffffffff167f8c5be1e5ebec7d5bd14f71427d1e84f3dd0314c0f7b2291e5b200ac8c7c3b92560405160405180910390a45050565b6000806121a183610ffd565b90508073ffffffffffffffffffffffffffffffffffffffff168473ffffffffffffffffffffffffffffffffffffffff1614806121e357506121e28185611a4d565b5b8061222157508373ffffffffffffffffffffffffffffffffffffffff16612209846108eb565b73ffffffffffffffffffffffffffffffffffffffff16145b91505092915050565b8273ffffffffffffffffffffffffffffffffffffffff1661224a82610ffd565b73ffffffffffffffffffffffffffffffffffffffff16146122a0576040517f08c379a0000000000000000000000000000000000000000000000000000000008152600401612297906141d1565b60405180910390fd5b600073ffffffffffffffffffffffffffffffffffffffff168273ffffffffffffffffffffffffffffffffffffffff160361230f576040517f08c379a000000000000000000000000000000000000000000000000000000000815260040161230690614263565b60405180910390fd5b61231c83838360016128ae565b8273ffffffffffffffffffffffffffffffffffffffff1661233c82610ffd565b73ffffffffffffffffffffffffffffffffffffffff1614612392576040517f08c379a0000000000000000000000000000000000000000000000000000000008152600401612389906141d1565b60405180910390fd5b6004600082815260200190815260200160002060006101000a81549073ffffffffffffffffffffffffffffffffffffffff02191690556001600360008573ffffffffffffffffffffffffffffffffffffffff1673ffffffffffffffffffffffffffffffffffffffff168152602001908152602001600020600082825403925050819055506001600360008473ffffffffffffffffffffffffffffffffffffffff1673ffffffffffffffffffffffffffffffffffffffff16815260200190815260200160002060008282540192505081905550816002600083815260200190815260200160002060006101000a81548173ffffffffffffffffffffffffffffffffffffffff021916908373ffffffffffffffffffffffffffffffffffffffff160217905550808273ffffffffffffffffffffffffffffffffffffffff168473ffffffffffffffffffffffffffffffffffffffff167fddf252ad1be2c89b69c2b068fc378daa952ba7f163c4a11628f55a4df523b3ef60405160405180910390a461251e83838360016128b4565b505050565b60006002600083815260200190815260200160002060009054906101000a900473ffffffffffffffffffffffffffffffffffffffff169050919050565b6000600760009054906101000a900473ffffffffffffffffffffffffffffffffffffffff16905081600760006101000a81548173ffffffffffffffffffffffffffffffffffffffff021916908373ffffffffffffffffffffffffffffffffffffffff1602179055508173ffffffffffffffffffffffffffffffffffffffff168173ffffffffffffffffffffffffffffffffffffffff167f8be0079c531659141344cd1fd0a4f28419497f9722a3daafe3b4186f6b6457e060405160405180910390a35050565b8173ffffffffffffffffffffffffffffffffffffffff168373ffffffffffffffffffffffffffffffffffffffff1603612694576040517f08c379a000000000000000000000000000000000000000000000000000000000815260040161268b906142cf565b60405180910390fd5b80600560008573ffffffffffffffffffffffffffffffffffffffff1673ffffffffffffffffffffffffffffffffffffffff16815260200190815260200160002060008473ffffffffffffffffffffffffffffffffffffffff1673ffffffffffffffffffffffffffffffffffffffff16815260200190815260200160002060006101000a81548160ff0219169083151502179055508173ffffffffffffffffffffffffffffffffffffffff168373ffffffffffffffffffffffffffffffffffffffff167f17307eab39ab6107e8899845ad3d59bd9653f200f220920489ca2b5937696c31836040516127859190612dbd565b60405180910390a3505050565b61279d84848461222a565b6127a9848484846128ba565b6127e8576040517f08c379a00000000000000000000000000000000000000000000000000000000081526004016127df90614361565b60405180910390fd5b50505050565b606060405180602001604052806000815250905090565b606061281082612089565b600061281a6127ee565b9050600081511161283a5760405180602001604052806000815250612865565b8061284484612a41565b604051602001612855929190613b8f565b6040516020818303038152906040525b915050919050565b60008073ffffffffffffffffffffffffffffffffffffffff1661288f83612523565b73ffffffffffffffffffffffffffffffffffffffff1614159050919050565b50505050565b50505050565b60006128db8473ffffffffffffffffffffffffffffffffffffffff16612b0f565b15612a34578373ffffffffffffffffffffffffffffffffffffffff1663150b7a026129046120d4565b8786866040518563ffffffff1660e01b815260040161292694939291906143d6565b6020604051808303816000875af192505050801561296257506040513d601f19601f8201168201806040525081019061295f9190614437565b60015b6129e4573d8060008114612992576040519150601f19603f3d011682016040523d82523d6000602084013e612997565b606091505b5060008151036129dc576040517f08c379a00000000000000000000000000000000000000000000000000000000081526004016129d390614361565b60405180910390fd5b805181602001fd5b63150b7a0260e01b7bffffffffffffffffffffffffffffffffffffffffffffffffffffffff1916817bffffffffffffffffffffffffffffffffffffffffffffffffffffffff191614915050612a39565b600190505b949350505050565b606060006001612a5084612b32565b01905060008167ffffffffffffffff811115612a6f57612a6e613006565b5b6040519080825280601f01601f191660200182016040528015612aa15781602001600182028036833780820191505090505b509050600082602001820190505b600115612b04578080600190039150507f3031323334353637383961626364656600000000000000000000000000000000600a86061a8153600a8581612af857612af7614464565b5b04945060008503612aaf575b819350505050919050565b6000808273ffffffffffffffffffffffffffffffffffffffff163b119050919050565b600080600090507a184f03e93ff9f4daa797ed6e38ed64bf6a1f0100000000000000008310612b90577a184f03e93ff9f4daa797ed6e38ed64bf6a1f0100000000000000008381612b8657612b85614464565b5b0492506040810190505b6d04ee2d6d415b85acef81000000008310612bcd576d04ee2d6d415b85acef81000000008381612bc357612bc2614464565b5b0492506020810190505b662386f26fc100008310612bfc57662386f26fc100008381612bf257612bf1614464565b5b0492506010810190505b6305f5e1008310612c25576305f5e1008381612c1b57612c1a614464565b5b0492506008810190505b6127108310612c4a576127108381612c4057612c3f614464565b5b0492506004810190505b60648310612c6d5760648381612c6357612c62614464565b5b0492506002810190505b600a8310612c7c576001810190505b80915050919050565b60405180606001604052806000815260200160008152602001600081525090565b6000604051905090565b600080fd5b600080fd5b6000819050919050565b612ccd81612cba565b8114612cd857600080fd5b50565b600081359050612cea81612cc4565b92915050565b600060208284031215612d0657612d05612cb0565b5b6000612d1484828501612cdb565b91505092915050565b60007fffffffff0000000000000000000000000000000000000000000000000000000082169050919050565b612d5281612d1d565b8114612d5d57600080fd5b50565b600081359050612d6f81612d49565b92915050565b600060208284031215612d8b57612d8a612cb0565b5b6000612d9984828501612d60565b91505092915050565b60008115159050919050565b612db781612da2565b82525050565b6000602082019050612dd26000830184612dae565b92915050565b600081519050919050565b600082825260208201905092915050565b60005b83811015612e12578082015181840152602081019050612df7565b60008484015250505050565b6000601f19601f8301169050919050565b6000612e3a82612dd8565b612e448185612de3565b9350612e54818560208601612df4565b612e5d81612e1e565b840191505092915050565b60006020820190508181036000830152612e828184612e2f565b905092915050565b600073ffffffffffffffffffffffffffffffffffffffff82169050919050565b6000612eb582612e8a565b9050919050565b612ec581612eaa565b82525050565b6000602082019050612ee06000830184612ebc565b92915050565b612eef81612eaa565b8114612efa57600080fd5b50565b600081359050612f0c81612ee6565b92915050565b60008060408385031215612f2957612f28612cb0565b5b6000612f3785828601612efd565b9250506020612f4885828601612cdb565b9150509250929050565b612f5b81612cba565b82525050565b6000602082019050612f766000830184612f52565b92915050565b600080600060608486031215612f9557612f94612cb0565b5b6000612fa386828701612efd565b9350506020612fb486828701612efd565b9250506040612fc586828701612cdb565b9150509250925092565b600060208284031215612fe557612fe4612cb0565b5b6000612ff384828501612efd565b91505092915050565b600080fd5b600080fd5b7f4e487b7100000000000000000000000000000000000000000000000000000000600052604160045260246000fd5b61303e82612e1e565b810181811067ffffffffffffffff8211171561305d5761305c613006565b5b80604052505050565b6000613070612ca6565b905061307c8282613035565b919050565b600067ffffffffffffffff82111561309c5761309b613006565b5b6130a582612e1e565b9050602081019050919050565b82818337600083830152505050565b60006130d46130cf84613081565b613066565b9050828152602081018484840111156130f0576130ef613001565b5b6130fb8482856130b2565b509392505050565b600082601f83011261311857613117612ffc565b5b81356131288482602086016130c1565b91505092915050565b6000806040838503121561314857613147612cb0565b5b600083013567ffffffffffffffff81111561316657613165612cb5565b5b61317285828601613103565b925050602061318385828601612cdb565b9150509250929050565b61319681612da2565b81146131a157600080fd5b50565b6000813590506131b38161318d565b92915050565b600080604083850312156131d0576131cf612cb0565b5b60006131de85828601612efd565b92505060206131ef858286016131a4565b9150509250929050565b600067ffffffffffffffff82111561321457613213613006565b5b61321d82612e1e565b9050602081019050919050565b600061323d613238846131f9565b613066565b90508281526020810184848401111561325957613258613001565b5b6132648482856130b2565b509392505050565b600082601f83011261328157613280612ffc565b5b813561329184826020860161322a565b91505092915050565b600080600080608085870312156132b4576132b3612cb0565b5b60006132c287828801612efd565b94505060206132d387828801612efd565b93505060406132e487828801612cdb565b925050606085013567ffffffffffffffff81111561330557613304612cb5565b5b6133118782880161326c565b91505092959194509250565b600081519050919050565b600082825260208201905092915050565b6000819050602082019050919050565b61335281612cba565b82525050565b60608201600082015161336e6000850182613349565b5060208201516133816020850182613349565b5060408201516133946040850182613349565b50505050565b60006133a68383613358565b60608301905092915050565b6000602082019050919050565b60006133ca8261331d565b6133d48185613328565b93506133df83613339565b8060005b838110156134105781516133f7888261339a565b9750613402836133b2565b9250506001810190506133e3565b5085935050505092915050565b6000602082019050818103600083015261343781846133bf565b905092915050565b6000806040838503121561345657613455612cb0565b5b600061346485828601612cdb565b925050602061347585828601612cdb565b9150509250929050565b6000806040838503121561349657613495612cb0565b5b60006134a485828601612efd565b92505060206134b585828601612efd565b9150509250929050565b7f74686520626f6f6b20646f6573206e6f74206578697374730000000000000000600082015250565b60006134f5601883612de3565b9150613500826134bf565b602082019050919050565b60006020820190508181036000830152613524816134e8565b9050919050565b7f4e487b7100000000000000000000000000000000000000000000000000000000600052603260045260246000fd5b7f4e487b7100000000000000000000000000000000000000000000000000000000600052601160045260246000fd5b600061359482612cba565b91507fffffffffffffffffffffffffffffffffffffffffffffffffffffffffffffffff82036135c6576135c561355a565b5b600182019050919050565b7f4e487b7100000000000000000000000000000000000000000000000000000000600052602260045260246000fd5b6000600282049050600182168061361857607f821691505b60208210810361362b5761362a6135d1565b5b50919050565b7f4552433732313a20617070726f76616c20746f2063757272656e74206f776e6560008201527f7200000000000000000000000000000000000000000000000000000000000000602082015250565b600061368d602183612de3565b915061369882613631565b604082019050919050565b600060208201905081810360008301526136bc81613680565b9050919050565b7f4552433732313a20617070726f76652063616c6c6572206973206e6f7420746f60008201527f6b656e206f776e6572206f7220617070726f76656420666f7220616c6c000000602082015250565b600061371f603d83612de3565b915061372a826136c3565b604082019050919050565b6000602082019050818103600083015261374e81613712565b9050919050565b7f4552433732313a2063616c6c6572206973206e6f7420746f6b656e206f776e6560008201527f72206f7220617070726f76656400000000000000000000000000000000000000602082015250565b60006137b1602d83612de3565b91506137bc82613755565b604082019050919050565b600060208201905081810360008301526137e0816137a4565b9050919050565b7f626f6f6b6964206973206e6f7420617661696c61626c65000000000000000000600082015250565b600061381d601783612de3565b9150613828826137e7565b602082019050919050565b6000602082019050818103600083015261384c81613810565b9050919050565b7f73656e6420746865206375727265637420707269636500000000000000000000600082015250565b6000613889601683612de3565b915061389482613853565b602082019050919050565b600060208201905081810360008301526138b88161387c565b9050919050565b7f626f6f6b206973206e6f7420617661696c61626c650000000000000000000000600082015250565b60006138f5601583612de3565b9150613900826138bf565b602082019050919050565b60006020820190508181036000830152613924816138e8565b9050919050565b7f796f752063616e206e6f7420626f72726f772073616d6520626f6f6b00000000600082015250565b6000613961601c83612de3565b915061396c8261392b565b602082019050919050565b6000602082019050818103600083015261399081613954565b9050919050565b7f796f752068617620616c726561647920626f72726f776564203320626f6f6b73600082015250565b60006139cd602083612de3565b91506139d882613997565b602082019050919050565b600060208201905081810360008301526139fc816139c0565b9050919050565b6000613a0e82612cba565b915060008203613a2157613a2061355a565b5b600182039050919050565b6000604082019050613a416000830185612f52565b613a4e6020830184612ebc565b9392505050565b7f4552433732313a20696e76616c696420746f6b656e2049440000000000000000600082015250565b6000613a8b601883612de3565b9150613a9682613a55565b602082019050919050565b60006020820190508181036000830152613aba81613a7e565b9050919050565b7f4552433732313a2061646472657373207a65726f206973206e6f74206120766160008201527f6c6964206f776e65720000000000000000000000000000000000000000000000602082015250565b6000613b1d602983612de3565b9150613b2882613ac1565b604082019050919050565b60006020820190508181036000830152613b4c81613b10565b9050919050565b600081905092915050565b6000613b6982612dd8565b613b738185613b53565b9350613b83818560208601612df4565b80840191505092915050565b6000613b9b8285613b5e565b9150613ba78284613b5e565b91508190509392505050565b6000613bbe82612cba565b9150613bc983612cba565b9250828203905081811115613be157613be061355a565b5b92915050565b7f626f6f6b20696420616e6420746f6b656e20696420646f6573206e6f74206d6160008201527f7463686564000000000000000000000000000000000000000000000000000000602082015250565b6000613c43602583612de3565b9150613c4e82613be7565b604082019050919050565b60006020820190508181036000830152613c7281613c36565b9050919050565b7f4f776e61626c653a206e6577206f776e657220697320746865207a65726f206160008201527f6464726573730000000000000000000000000000000000000000000000000000602082015250565b6000613cd5602683612de3565b9150613ce082613c79565b604082019050919050565b60006020820190508181036000830152613d0481613cc8565b9050919050565b7f4f776e61626c653a2063616c6c6572206973206e6f7420746865206f776e6572600082015250565b6000613d41602083612de3565b9150613d4c82613d0b565b602082019050919050565b60006020820190508181036000830152613d7081613d34565b9050919050565b7f4552433732313a206d696e7420746f20746865207a65726f2061646472657373600082015250565b6000613dad602083612de3565b9150613db882613d77565b602082019050919050565b60006020820190508181036000830152613ddc81613da0565b9050919050565b7f4552433732313a20746f6b656e20616c7265616479206d696e74656400000000600082015250565b6000613e19601c83612de3565b9150613e2482613de3565b602082019050919050565b60006020820190508181036000830152613e4881613e0c565b9050919050565b7f45524337323155524953746f726167653a2055524920736574206f66206e6f6e60008201527f6578697374656e7420746f6b656e000000000000000000000000000000000000602082015250565b6000613eab602e83612de3565b9150613eb682613e4f565b604082019050919050565b60006020820190508181036000830152613eda81613e9e565b9050919050565b60008190508160005260206000209050919050565b60006020601f8301049050919050565b600082821b905092915050565b600060088302613f437fffffffffffffffffffffffffffffffffffffffffffffffffffffffffffffffff82613f06565b613f4d8683613f06565b95508019841693508086168417925050509392505050565b6000819050919050565b6000613f8a613f85613f8084612cba565b613f65565b612cba565b9050919050565b6000819050919050565b613fa483613f6f565b613fb8613fb082613f91565b848454613f13565b825550505050565b600090565b613fcd613fc0565b613fd8818484613f9b565b505050565b5b81811015613ffc57613ff1600082613fc5565b600181019050613fde565b5050565b601f8211156140415761401281613ee1565b61401b84613ef6565b8101602085101561402a578190505b61403e61403685613ef6565b830182613fdd565b50505b505050565b600082821c905092915050565b600061406460001984600802614046565b1980831691505092915050565b600061407d8383614053565b9150826002028217905092915050565b61409682612dd8565b67ffffffffffffffff8111156140af576140ae613006565b5b6140b98254613600565b6140c4828285614000565b600060209050601f8311600181146140f757600084156140e5578287015190505b6140ef8582614071565b865550614157565b601f19841661410586613ee1565b60005b8281101561412d57848901518255600182019150602085019450602081019050614108565b8683101561414a5784890151614146601f891682614053565b8355505b6001600288020188555050505b505050505050565b7f4552433732313a207472616e736665722066726f6d20696e636f72726563742060008201527f6f776e6572000000000000000000000000000000000000000000000000000000602082015250565b60006141bb602583612de3565b91506141c68261415f565b604082019050919050565b600060208201905081810360008301526141ea816141ae565b9050919050565b7f4552433732313a207472616e7366657220746f20746865207a65726f2061646460008201527f7265737300000000000000000000000000000000000000000000000000000000602082015250565b600061424d602483612de3565b9150614258826141f1565b604082019050919050565b6000602082019050818103600083015261427c81614240565b9050919050565b7f4552433732313a20617070726f766520746f2063616c6c657200000000000000600082015250565b60006142b9601983612de3565b91506142c482614283565b602082019050919050565b600060208201905081810360008301526142e8816142ac565b9050919050565b7f4552433732313a207472616e7366657220746f206e6f6e20455243373231526560008201527f63656976657220696d706c656d656e7465720000000000000000000000000000602082015250565b600061434b603283612de3565b9150614356826142ef565b604082019050919050565b6000602082019050818103600083015261437a8161433e565b9050919050565b600081519050919050565b600082825260208201905092915050565b60006143a882614381565b6143b2818561438c565b93506143c2818560208601612df4565b6143cb81612e1e565b840191505092915050565b60006080820190506143eb6000830187612ebc565b6143f86020830186612ebc565b6144056040830185612f52565b8181036060830152614417818461439d565b905095945050505050565b60008151905061443181612d49565b92915050565b60006020828403121561444d5761444c612cb0565b5b600061445b84828501614422565b91505092915050565b7f4e487b7100000000000000000000000000000000000000000000000000000000600052601260045260246000fdfea264697066735822122026a8dfc9b810296bfa2651b2ff2b53e0034c219952a89d1b38df79815def5b7664736f6c63430008120033",
  "linkReferences": {},
  "deployedLinkReferences": {}
}